{
  "address": "0xe561583d3A0dba55569Da8ff2e51a74d435eF372",
  "abi": [
    {
      "inputs": [
        {
          "internalType": "address",
          "name": "_mastercopy",
          "type": "address"
        },
        {
          "internalType": "uint256",
          "name": "_chainId",
          "type": "uint256"
        }
      ],
      "stateMutability": "nonpayable",
      "type": "constructor"
    },
    {
      "anonymous": false,
      "inputs": [
        {
          "indexed": false,
          "internalType": "address",
          "name": "channel",
          "type": "address"
        }
      ],
      "name": "ChannelCreation",
      "type": "event"
    },
    {
      "inputs": [
        {
          "internalType": "address",
          "name": "alice",
          "type": "address"
        },
        {
          "internalType": "address",
          "name": "bob",
          "type": "address"
        }
      ],
      "name": "createChannel",
      "outputs": [
        {
          "internalType": "address",
          "name": "channel",
          "type": "address"
        }
      ],
      "stateMutability": "nonpayable",
      "type": "function"
    },
    {
      "inputs": [
        {
          "internalType": "address",
          "name": "alice",
          "type": "address"
        },
        {
          "internalType": "address",
          "name": "bob",
          "type": "address"
        },
        {
          "internalType": "address",
          "name": "assetId",
          "type": "address"
        },
        {
          "internalType": "uint256",
          "name": "amount",
          "type": "uint256"
        }
      ],
      "name": "createChannelAndDepositAlice",
      "outputs": [
        {
          "internalType": "address",
          "name": "channel",
          "type": "address"
        }
      ],
      "stateMutability": "payable",
      "type": "function"
    },
    {
      "inputs": [],
      "name": "getChainId",
      "outputs": [
        {
          "internalType": "uint256",
          "name": "_chainId",
          "type": "uint256"
        }
      ],
      "stateMutability": "view",
      "type": "function"
    },
    {
      "inputs": [
        {
          "internalType": "address",
          "name": "alice",
          "type": "address"
        },
        {
          "internalType": "address",
          "name": "bob",
          "type": "address"
        }
      ],
      "name": "getChannelAddress",
      "outputs": [
        {
          "internalType": "address",
          "name": "",
          "type": "address"
        }
      ],
      "stateMutability": "view",
      "type": "function"
    },
    {
      "inputs": [],
      "name": "getMastercopy",
      "outputs": [
        {
          "internalType": "address",
          "name": "",
          "type": "address"
        }
      ],
      "stateMutability": "view",
      "type": "function"
    },
    {
      "inputs": [],
      "name": "getProxyCreationCode",
      "outputs": [
        {
          "internalType": "bytes",
          "name": "",
          "type": "bytes"
        }
      ],
      "stateMutability": "view",
      "type": "function"
    },
    {
      "inputs": [],
      "name": "getStoredChainId",
      "outputs": [
        {
          "internalType": "uint256",
          "name": "",
          "type": "uint256"
        }
      ],
      "stateMutability": "view",
      "type": "function"
    }
  ],
  "transactionHash": "0xb24097c413c32f39d065ceb61643f215cb47e21c2ea0feeddc8d4c68d0e46062",
  "args": [
    "0xd105b6B42206dfA6Db00E6a4823bC88eFAC00476",
    "0"
  ],
  "solcInputHash": "89c55d5a88f10637860a9ea31a1daad3",
  "bytecode": "0x60c060405234801561001057600080fd5b50604051610c8f380380610c8f83398101604081905261002f916100eb565b6001600160601b0319606083901b1660805260a081905261004f82610062565b8051602090910120600055506101909050565b60606040518060400160405280601481526020017f3d602d80600a3d3981f3363d3d373d3d3d363d73000000000000000000000000815250826040518060400160405280600f81526020016e5af43d82803e903d91602b57fd5bf360881b8152506040516020016100d59392919061015c565b6040516020818303038152906040529050919050565b600080604083850312156100fd578182fd5b82516001600160a01b0381168114610113578283fd5b6020939093015192949293505050565b60008151815b818110156101435760208185018101518683015201610129565b818111156101515782828601525b509290920192915050565b60006101688286610123565b606085901b6001600160601b03191681526101866014820185610123565b9695505050505050565b60805160601c60a051610acf6101c06000398061017e52806101a452508061015352806102a65250610acf6000f3fe6080604052600436106100705760003560e01c806335a1ba6f1161004e57806335a1ba6f146100d7578063e617aaac14610104578063efe4369314610124578063fe4545011461013957610070565b806315727e911461007557806332a130c9146100a05780633408e470146100c2575b600080fd5b34801561008157600080fd5b5061008a61014c565b60405161009791906108d6565b60405180910390f35b3480156100ac57600080fd5b506100b561017c565b6040516100979190610a60565b3480156100ce57600080fd5b506100b56101a0565b3480156100e357600080fd5b506100f76100f2366004610703565b6101d8565b604051610097919061086b565b34801561011057600080fd5b506100f761011f366004610703565b610284565b34801561013057600080fd5b506100f76102a4565b6100f7610147366004610737565b6102c8565b60606101777f00000000000000000000000000000000000000000000000000000000000000006103a5565b905090565b7f000000000000000000000000000000000000000000000000000000000000000090565b60007f0000000000000000000000000000000000000000000000000000000000000000806101d0574691506101d4565b8091505b5090565b60006101e48383610425565b604051632d34ba7960e01b81529091506001600160a01b03821690632d34ba7990610215908690869060040161087f565b600060405180830381600087803b15801561022f57600080fd5b505af1158015610243573d6000803e3d6000fd5b505050507fa79ba8cc5fdc29196c8d65701a02433c92328f38f0ffbea3908335b80d81409d81604051610276919061086b565b60405180910390a192915050565b600061029b610293848461044f565b60005461048b565b90505b92915050565b7f000000000000000000000000000000000000000000000000000000000000000090565b60006102d485856101d8565b90506102df83610498565b61033b576102ef833330856104a5565b6103145760405162461bcd60e51b815260040161030b906109e4565b60405180910390fd5b61031f8382846104f8565b61033b5760405162461bcd60e51b815260040161030b906109a0565b60405163635ae90160e01b81526001600160a01b0382169063635ae90190349061036b90879087906004016108bd565b6000604051808303818588803b15801561038457600080fd5b505af1158015610398573d6000803e3d6000fd5b5050505050949350505050565b6060604051806040016040528060148152602001733d602d80600a3d3981f3363d3d373d3d3d363d7360601b815250826040518060400160405280600f81526020016e5af43d82803e903d91602b57fd5bf360881b81525060405160200161040f93929190610824565b6040516020818303038152906040529050919050565b600080610432848461044f565b905061044760008261044261014c565b610540565b949350505050565b6000828261045b6101a0565b60405160200161046d939291906107ab565b60405160208183030381529060405280519060200120905092915050565b600061029b8383306105b2565b6001600160a01b03161590565b60006104ef858585856040516024016104c093929190610899565b60408051601f198184030181529190526020810180516001600160e01b03166323b872dd60e01b1790526105f1565b95945050505050565b60006104478484846040516024016105119291906108bd565b60408051601f198184030181529190526020810180516001600160e01b031663095ea7b360e01b1790526105f1565b600080844710156105635760405162461bcd60e51b815260040161030b90610a29565b82516105815760405162461bcd60e51b815260040161030b90610909565b8383516020850187f590506001600160a01b0381166104475760405162461bcd60e51b815260040161030b9061093e565b60008060ff60f81b8386866040516020016105d094939291906107d4565b60408051808303601f19018152919052805160209091012095945050505050565b60006105fc836106a2565b6106185760405162461bcd60e51b815260040161030b90610975565b60006060846001600160a01b0316846040516106349190610808565b6000604051808303816000865af19150503d8060008114610671576040519150601f19603f3d011682016040523d82523d6000602084013e610676565b606091505b509150915061068582826106db565b805115806104ef5750808060200190518101906104ef9190610784565b6000813f7fc5d2460186f7233c927e7db2dcc703c0e500b653ca82273b7bfad8045d85a470818114801590610447575050151592915050565b816106e857805160208201fd5b5050565b80356001600160a01b038116811461029e57600080fd5b60008060408385031215610715578182fd5b61071f84846106ec565b915061072e84602085016106ec565b90509250929050565b6000806000806080858703121561074c578182fd5b61075686866106ec565b935061076586602087016106ec565b925061077486604087016106ec565b9396929550929360600135925050565b600060208284031215610795578081fd5b815180151581146107a4578182fd5b9392505050565b6001600160601b0319606094851b811682529290931b9091166014830152602882015260480190565b6001600160f81b031994909416845260609290921b6001600160601b03191660018401526015830152603582015260550190565b6000825161081a818460208701610a69565b9190910192915050565b60008451610836818460208901610a69565b606085901b6001600160601b031916908301908152835161085e816014840160208801610a69565b0160140195945050505050565b6001600160a01b0391909116815260200190565b6001600160a01b0392831681529116602082015260400190565b6001600160a01b039384168152919092166020820152604081019190915260600190565b6001600160a01b03929092168252602082015260400190565b60006020825282518060208401526108f5816040850160208701610a69565b601f01601f19169190910160400192915050565b6020808252818101527f437265617465323a2062797465636f6465206c656e677468206973207a65726f604082015260600190565b60208082526019908201527f437265617465323a204661696c6564206f6e206465706c6f7900000000000000604082015260600190565b6020808252601190820152704c696245524332303a204e4f5f434f444560781b604082015260600190565b60208082526024908201527f4368616e6e656c466163746f72793a2045524332305f415050524f56455f46416040820152631253115160e21b606082015260800190565b60208082526025908201527f4368616e6e656c466163746f72793a2045524332305f5452414e534645525f46604082015264105253115160da1b606082015260800190565b6020808252601d908201527f437265617465323a20696e73756666696369656e742062616c616e6365000000604082015260600190565b90815260200190565b60005b83811015610a84578181015183820152602001610a6c565b83811115610a93576000848401525b5050505056fea26469706673582212206b46714e4e157ca4fcef5f14f882cae62cdcfb5e301602c8361ab37a1daaf2ab64736f6c63430007010033",
  "devdoc": {
    "author": "Connext <support@connext.network>",
    "kind": "dev",
    "methods": {
      "constructor": {
        "details": "Creates a new `ChannelFactory`",
        "params": {
          "_chainId": "the chain identifier when generating the CREATE2 salt. If zero, the chain identifier used in the proxy salt will be the result of the opcode",
          "_mastercopy": "the address of the `ChannelMastercopy` (channel logic)"
        }
      },
      "createChannel(address,address)": {
        "details": "Allows us to create new channel contract and get it all set up in one transaction",
        "params": {
          "alice": "address of the high fidelity channel participant",
          "bob": "address of the other channel participant"
        }
      },
      "createChannelAndDepositAlice(address,address,address,uint256)": {
        "details": "Allows us to create a new channel contract and fund it in one transaction",
        "params": {
          "bob": "address of the other channel participant"
        }
      },
      "getChainId()": {
        "details": "Allows us to get the chainId that this factory will use in the create2 salt"
      },
      "getChannelAddress(address,address)": {
        "details": "Allows us to get the address for a new channel contract created via `createChannel`",
        "params": {
          "alice": "address of the igh fidelity channel participant",
          "bob": "address of the other channel participant"
        }
      },
      "getMastercopy()": {
        "details": "Allows us to get the mastercopy that this factory will deploy channels against"
      },
      "getProxyCreationCode()": {
        "details": "Returns the proxy code used to both calculate the CREATE2 address and deploy the channel proxy pointed to the `ChannelMastercopy`"
      },
      "getStoredChainId()": {
        "details": "Allows us to get the chainId that this factory has stored"
      }
    },
    "title": "ChannelFactory",
    "version": 1
  },
  "userdoc": {
    "kind": "user",
    "methods": {},
    "notice": "Creates and sets up a new channel proxy contract",
    "version": 1
  },
  "storageLayout": {
    "storage": [
      {
        "astId": 3100,
        "contract": "src.sol/ChannelFactory.sol:ChannelFactory",
        "label": "creationCodeHash",
        "offset": 0,
        "slot": "0",
        "type": "t_bytes32"
      }
    ],
    "types": {
      "t_bytes32": {
        "encoding": "inplace",
        "label": "bytes32",
        "numberOfBytes": "32"
      }
    }
  }
}