{
  "address": "0x7cbCeFca35786189c8efb53D8f742D3Bded62162",
  "abi": [
    {
      "inputs": [],
      "name": "EncodedCancel",
      "outputs": [
        {
          "internalType": "bytes",
          "name": "",
          "type": "bytes"
        }
      ],
      "stateMutability": "pure",
      "type": "function"
    },
    {
      "inputs": [],
      "name": "Name",
      "outputs": [
        {
          "internalType": "string",
          "name": "",
          "type": "string"
        }
      ],
      "stateMutability": "view",
      "type": "function"
    },
    {
      "inputs": [],
      "name": "ResolverEncoding",
      "outputs": [
        {
          "internalType": "string",
          "name": "",
          "type": "string"
        }
      ],
      "stateMutability": "view",
      "type": "function"
    },
    {
      "inputs": [],
      "name": "StateEncoding",
      "outputs": [
        {
          "internalType": "string",
          "name": "",
          "type": "string"
        }
      ],
      "stateMutability": "view",
      "type": "function"
    },
    {
      "inputs": [
        {
          "internalType": "bytes",
          "name": "encodedBalance",
          "type": "bytes"
        },
        {
          "internalType": "bytes",
          "name": "encodedState",
          "type": "bytes"
        }
      ],
      "name": "create",
      "outputs": [
        {
          "internalType": "bool",
          "name": "",
          "type": "bool"
        }
      ],
      "stateMutability": "view",
      "type": "function"
    },
    {
      "inputs": [],
      "name": "getRegistryInformation",
      "outputs": [
        {
          "components": [
            {
              "internalType": "string",
              "name": "name",
              "type": "string"
            },
            {
              "internalType": "address",
              "name": "definition",
              "type": "address"
            },
            {
              "internalType": "string",
              "name": "stateEncoding",
              "type": "string"
            },
            {
              "internalType": "string",
              "name": "resolverEncoding",
              "type": "string"
            },
            {
              "internalType": "bytes",
              "name": "encodedCancel",
              "type": "bytes"
            }
          ],
          "internalType": "struct RegisteredTransfer",
          "name": "",
          "type": "tuple"
        }
      ],
      "stateMutability": "view",
      "type": "function"
    },
    {
      "inputs": [
        {
          "internalType": "bytes",
          "name": "encodedBalance",
          "type": "bytes"
        },
        {
          "internalType": "bytes",
          "name": "encodedState",
          "type": "bytes"
        },
        {
          "internalType": "bytes",
          "name": "encodedResolver",
          "type": "bytes"
        }
      ],
      "name": "resolve",
      "outputs": [
        {
          "components": [
            {
              "internalType": "uint256[2]",
              "name": "amount",
              "type": "uint256[2]"
            },
            {
              "internalType": "address payable[2]",
              "name": "to",
              "type": "address[2]"
            }
          ],
          "internalType": "struct Balance",
          "name": "",
          "type": "tuple"
        }
      ],
      "stateMutability": "view",
      "type": "function"
    }
  ],
  "transactionHash": "0x6807b213dd0572e72625146c305aa1e47b58c7e965042ffdb2133fe375a1c5db",
  "args": [],
  "solcInputHash": "e64b9cdf4f72778a3c3a9b0d6a298f3c",
  "bytecode": "0x608060405234801561001057600080fd5b50610d19806100206000396000f3fe608060405234801561001057600080fd5b506004361061007d5760003560e01c80638052474d1161005b5780638052474d146100bd5780638de8b77e146100c55780638ef98a7e146100cd57806394184ba9146100ed5761007d565b80630528aa1c14610082578063206162be146100a05780633722aff9146100b5575b600080fd5b61008a61010d565b6040516100979190610a01565b60405180910390f35b6100a8610141565b6040516100979190610bcb565b61008a61034d565b61008a610386565b61008a6103b2565b6100e06100db36600461079f565b6103ce565b6040516100979190610b61565b6101006100fb366004610736565b61051e565b60405161009791906109ed565b60606101176105cb565b6000815260405161012c908290602001610c5b565b60405160208183030381529060405291505090565b6101496105dd565b6040518060a00160405280306001600160a01b0316638052474d6040518163ffffffff1660e01b815260040160006040518083038186803b15801561018d57600080fd5b505afa1580156101a1573d6000803e3d6000fd5b505050506040513d6000823e601f3d908101601f191682016040526101c99190810190610835565b8152602001306001600160a01b03168152602001306001600160a01b0316638de8b77e6040518163ffffffff1660e01b815260040160006040518083038186803b15801561021657600080fd5b505afa15801561022a573d6000803e3d6000fd5b505050506040513d6000823e601f3d908101601f191682016040526102529190810190610835565b8152602001306001600160a01b0316633722aff96040518163ffffffff1660e01b815260040160006040518083038186803b15801561029057600080fd5b505afa1580156102a4573d6000803e3d6000fd5b505050506040513d6000823e601f3d908101601f191682016040526102cc9190810190610835565b8152602001306001600160a01b0316630528aa1c6040518163ffffffff1660e01b815260040160006040518083038186803b15801561030a57600080fd5b505afa15801561031e573d6000803e3d6000fd5b505050506040513d6000823e601f3d908101601f191682016040526103469190810190610835565b9052905090565b6040518060400160405280601781526020017f7475706c65286279746573333220707265496d6167652900000000000000000081525081565b6040518060400160405280601081526020016f2430b9b43637b1b5aa3930b739b332b960811b81525081565b604051806060016040528060278152602001610cbd6027913981565b6103d6610615565b6103de61063a565b6103ea85870187610972565b90506103f46105cb565b6104008486018661094d565b905061040a610615565b610416898b018b610870565b8251909150158015906104385750602083015115806104385750428360200151115b156104f25760006002836000015160405160200161045691906109f8565b60408051601f1981840301815290829052610470916109d1565b602060405180830381855afa15801561048d573d6000803e3d6000fd5b5050506040513d601f19601f820116820180604052508101906104b0919061071e565b845190915081146104dc5760405162461bcd60e51b81526004016104d390610aa8565b60405180910390fd5b5080518051602090910152805160009052610511565b8151156105115760405162461bcd60e51b81526004016104d390610a66565b9998505050505050505050565b600061052861063a565b61053483850185610972565b905061053e610615565b61054a86880188610870565b805160200151909150156105705760405162461bcd60e51b81526004016104d390610a1b565b815161058e5760405162461bcd60e51b81526004016104d390610b2c565b602082015115806105a25750428260200151115b6105be5760405162461bcd60e51b81526004016104d390610aea565b5060019695505050505050565b60408051602081019091526000815290565b6040518060a001604052806060815260200160006001600160a01b031681526020016060815260200160608152602001606081525090565b6040518060400160405280610628610651565b8152602001610635610651565b905290565b604080518082019091526000808252602082015290565b60405180604001604052806002906020820280368337509192915050565b60008083601f840112610680578182fd5b50813567ffffffffffffffff811115610697578182fd5b6020830191508360208285010111156106af57600080fd5b9250929050565b600082601f8301126106c6578081fd5b815167ffffffffffffffff8111156106dc578182fd5b6106ef601f8201601f1916602001610c65565b915080825283602082850101111561070657600080fd5b610717816020840160208601610c8c565b5092915050565b60006020828403121561072f578081fd5b5051919050565b6000806000806040858703121561074b578283fd5b843567ffffffffffffffff80821115610762578485fd5b61076e8883890161066f565b90965094506020870135915080821115610786578384fd5b506107938782880161066f565b95989497509550505050565b600080600080600080606087890312156107b7578182fd5b863567ffffffffffffffff808211156107ce578384fd5b6107da8a838b0161066f565b909850965060208901359150808211156107f2578384fd5b6107fe8a838b0161066f565b90965094506040890135915080821115610816578384fd5b5061082389828a0161066f565b979a9699509497509295939492505050565b600060208284031215610846578081fd5b815167ffffffffffffffff81111561085c578182fd5b610868848285016106b6565b949350505050565b600060808284031215610881578081fd5b61088b6040610c65565b83601f840112610899578182fd5b6108a36040610c65565b808460408601878111156108b5578586fd5b855b60028110156108d65782358552602094850194909201916001016108b7565b5082855287605f8801126108e8578586fd5b6108f26040610c65565b9350839250905060808601871015610908578485fd5b845b600281101561093e5781356001600160a01b0381168114610929578687fd5b8452602093840193919091019060010161090a565b50506020830152509392505050565b60006020828403121561095e578081fd5b6109686020610c65565b9135825250919050565b600060408284031215610983578081fd5b61098d6040610c65565b82358152602083013560208201528091505092915050565b600081518084526109bd816020860160208601610c8c565b601f01601f19169290920160200192915050565b600082516109e3818460208701610c8c565b9190910192915050565b901515815260200190565b90815260200190565b600060208252610a1460208301846109a5565b9392505050565b6020808252602b908201527f486173686c6f636b5472616e736665723a204e4f4e5a45524f5f52454349504960408201526a454e545f42414c414e434560a81b606082015260800190565b60208082526022908201527f486173686c6f636b5472616e736665723a204e4f4e5a45524f5f4c4f434b48416040820152610a6960f31b606082015260800190565b60208082526022908201527f486173686c6f636b5472616e736665723a20494e56414c49445f505245494d41604082015261474560f01b606082015260800190565b60208082526022908201527f486173686c6f636b5472616e736665723a20455850495245445f54494d454c4f604082015261434b60f01b606082015260800190565b6020808252818101527f486173686c6f636b5472616e736665723a20454d5054595f4c4f434b48415348604082015260600190565b815160808201908260005b6002811015610b8b578251825260209283019290910190600101610b6c565b5050506020808401516040840160005b6002811015610bc15782516001600160a01b031682529183019190830190600101610b9b565b5050505092915050565b600060208252825160a06020840152610be760c08401826109a5565b905060018060a01b0360208501511660408401526040840151601f1980858403016060860152610c1783836109a5565b92506060860151915080858403016080860152610c3483836109a5565b925060808601519150808584030160a086015250610c5282826109a5565b95945050505050565b9051815260200190565b60405181810167ffffffffffffffff81118282101715610c8457600080fd5b604052919050565b60005b83811015610ca7578181015183820152602001610c8f565b83811115610cb6576000848401525b5050505056fe7475706c652862797465733332206c6f636b486173682c2075696e743235362065787069727929a2646970667358221220504748bee98773f4044cee2c7c80c33aab295f4c5c5b0507e75dda126f52424d64736f6c63430007010033",
  "devdoc": {
    "author": "Connext <support@connext.network>",
    "kind": "dev",
    "methods": {},
    "title": "HashlockTransfer",
    "version": 1
  },
  "userdoc": {
    "kind": "user",
    "methods": {},
    "notice": "This contract allows users to claim a payment locked in         the application if they provide the correct preImage. The payment is         reverted if not unlocked by the timelock if one is provided.",
    "version": 1
  },
  "storageLayout": {
    "storage": [],
    "types": null
  }
}