{
  "address": "0x046EB3c71397faE4E26C5c756eBd58618c03d648",
  "abi": [
    {
      "inputs": [
        {
          "internalType": "address",
          "name": "_mastercopy",
          "type": "address"
        },
        {
          "internalType": "uint256",
          "name": "_chainId",
          "type": "uint256"
        }
      ],
      "stateMutability": "nonpayable",
      "type": "constructor"
    },
    {
      "anonymous": false,
      "inputs": [
        {
          "indexed": false,
          "internalType": "address",
          "name": "channel",
          "type": "address"
        }
      ],
      "name": "ChannelCreation",
      "type": "event"
    },
    {
      "inputs": [
        {
          "internalType": "address",
          "name": "alice",
          "type": "address"
        },
        {
          "internalType": "address",
          "name": "bob",
          "type": "address"
        }
      ],
      "name": "createChannel",
      "outputs": [
        {
          "internalType": "address",
          "name": "channel",
          "type": "address"
        }
      ],
      "stateMutability": "nonpayable",
      "type": "function"
    },
    {
      "inputs": [
        {
          "internalType": "address",
          "name": "alice",
          "type": "address"
        },
        {
          "internalType": "address",
          "name": "bob",
          "type": "address"
        },
        {
          "internalType": "address",
          "name": "assetId",
          "type": "address"
        },
        {
          "internalType": "uint256",
          "name": "amount",
          "type": "uint256"
        }
      ],
      "name": "createChannelAndDepositAlice",
      "outputs": [
        {
          "internalType": "address",
          "name": "channel",
          "type": "address"
        }
      ],
      "stateMutability": "payable",
      "type": "function"
    },
    {
      "inputs": [],
      "name": "getChainId",
      "outputs": [
        {
          "internalType": "uint256",
          "name": "_chainId",
          "type": "uint256"
        }
      ],
      "stateMutability": "view",
      "type": "function"
    },
    {
      "inputs": [
        {
          "internalType": "address",
          "name": "alice",
          "type": "address"
        },
        {
          "internalType": "address",
          "name": "bob",
          "type": "address"
        }
      ],
      "name": "getChannelAddress",
      "outputs": [
        {
          "internalType": "address",
          "name": "",
          "type": "address"
        }
      ],
      "stateMutability": "view",
      "type": "function"
    },
    {
      "inputs": [],
      "name": "getMastercopy",
      "outputs": [
        {
          "internalType": "address",
          "name": "",
          "type": "address"
        }
      ],
      "stateMutability": "view",
      "type": "function"
    },
    {
      "inputs": [],
      "name": "getProxyCreationCode",
      "outputs": [
        {
          "internalType": "bytes",
          "name": "",
          "type": "bytes"
        }
      ],
      "stateMutability": "view",
      "type": "function"
    },
    {
      "inputs": [],
      "name": "getStoredChainId",
      "outputs": [
        {
          "internalType": "uint256",
          "name": "",
          "type": "uint256"
        }
      ],
      "stateMutability": "view",
      "type": "function"
    }
  ],
  "transactionHash": "0x8306316769a714bcf86a70369079eb55c5348fa2b1a4096e92a4398eaa28dd60",
  "args": [
    "0xaA59dF8Bf2A9eE8fB5aB841aAddf62Ce57Ee245f",
    "0"
  ],
  "solcInputHash": "e64b9cdf4f72778a3c3a9b0d6a298f3c",
  "bytecode": "0x60c060405234801561001057600080fd5b50604051610b9c380380610b9c83398101604081905261002f9161004a565b60609190911b6001600160601b03191660805260a052610082565b6000806040838503121561005c578182fd5b82516001600160a01b0381168114610072578283fd5b6020939093015192949293505050565b60805160601c60a051610ae56100b7600039806101ed5280610213528061024052508061017d528061033c5250610ae56000f3fe6080604052600436106100705760003560e01c806335a1ba6f1161004e57806335a1ba6f146100d7578063e617aaac14610104578063efe4369314610124578063fe4545011461013957610070565b806315727e911461007557806332a130c9146100a05780633408e470146100c2575b600080fd5b34801561008157600080fd5b5061008a61014c565b60405161009791906108ec565b60405180910390f35b3480156100ac57600080fd5b506100b56101eb565b6040516100979190610a76565b3480156100ce57600080fd5b506100b561020f565b3480156100e357600080fd5b506100f76100f2366004610719565b610262565b6040516100979190610881565b34801561011057600080fd5b506100f761011f366004610719565b61030e565b34801561013057600080fd5b506100f761033a565b6100f761014736600461074d565b61035e565b6060604051806040016040528060148152602001733d602d80600a3d3981f3363d3d373d3d3d363d7360601b8152507f00000000000000000000000000000000000000000000000000000000000000006040518060400160405280600f81526020016e5af43d82803e903d91602b57fd5bf360881b8152506040516020016101d69392919061083a565b60405160208183030381529060405290505b90565b7f000000000000000000000000000000000000000000000000000000000000000090565b60007f000000000000000000000000000000000000000000000000000000000000000061023d5750466101e8565b507f000000000000000000000000000000000000000000000000000000000000000090565b600061026e838361043b565b604051632d34ba7960e01b81529091506001600160a01b03821690632d34ba799061029f9086908690600401610895565b600060405180830381600087803b1580156102b957600080fd5b505af11580156102cd573d6000803e3d6000fd5b505050507fa79ba8cc5fdc29196c8d65701a02433c92328f38f0ffbea3908335b80d81409d816040516103009190610881565b60405180910390a192915050565b600061033161031d8484610465565b61032561014c565b805190602001206104a1565b90505b92915050565b7f000000000000000000000000000000000000000000000000000000000000000090565b600061036a8585610262565b9050610375836104ae565b6103d157610385833330856104bb565b6103aa5760405162461bcd60e51b81526004016103a1906109fa565b60405180910390fd5b6103b583828461050e565b6103d15760405162461bcd60e51b81526004016103a1906109b6565b60405163635ae90160e01b81526001600160a01b0382169063635ae90190349061040190879087906004016108d3565b6000604051808303818588803b15801561041a57600080fd5b505af115801561042e573d6000803e3d6000fd5b5050505050949350505050565b6000806104488484610465565b905061045d60008261045861014c565b610556565b949350505050565b6000828261047161020f565b604051602001610483939291906107c1565b60405160208183030381529060405280519060200120905092915050565b60006103318383306105c8565b6001600160a01b03161590565b6000610505858585856040516024016104d6939291906108af565b60408051601f198184030181529190526020810180516001600160e01b03166323b872dd60e01b179052610607565b95945050505050565b600061045d8484846040516024016105279291906108d3565b60408051601f198184030181529190526020810180516001600160e01b031663095ea7b360e01b179052610607565b600080844710156105795760405162461bcd60e51b81526004016103a190610a3f565b82516105975760405162461bcd60e51b81526004016103a19061091f565b8383516020850187f590506001600160a01b03811661045d5760405162461bcd60e51b81526004016103a190610954565b60008060ff60f81b8386866040516020016105e694939291906107ea565b60408051808303601f19018152919052805160209091012095945050505050565b6000610612836106b8565b61062e5760405162461bcd60e51b81526004016103a19061098b565b60006060846001600160a01b03168460405161064a919061081e565b6000604051808303816000865af19150503d8060008114610687576040519150601f19603f3d011682016040523d82523d6000602084013e61068c565b606091505b509150915061069b82826106f1565b80511580610505575080806020019051810190610505919061079a565b6000813f7fc5d2460186f7233c927e7db2dcc703c0e500b653ca82273b7bfad8045d85a47081811480159061045d575050151592915050565b816106fe57805160208201fd5b5050565b80356001600160a01b038116811461033457600080fd5b6000806040838503121561072b578182fd5b6107358484610702565b91506107448460208501610702565b90509250929050565b60008060008060808587031215610762578182fd5b61076c8686610702565b935061077b8660208701610702565b925061078a8660408701610702565b9396929550929360600135925050565b6000602082840312156107ab578081fd5b815180151581146107ba578182fd5b9392505050565b6001600160601b0319606094851b811682529290931b9091166014830152602882015260480190565b6001600160f81b031994909416845260609290921b6001600160601b03191660018401526015830152603582015260550190565b60008251610830818460208701610a7f565b9190910192915050565b6000845161084c818460208901610a7f565b606085901b6001600160601b0319169083019081528351610874816014840160208801610a7f565b0160140195945050505050565b6001600160a01b0391909116815260200190565b6001600160a01b0392831681529116602082015260400190565b6001600160a01b039384168152919092166020820152604081019190915260600190565b6001600160a01b03929092168252602082015260400190565b600060208252825180602084015261090b816040850160208701610a7f565b601f01601f19169190910160400192915050565b6020808252818101527f437265617465323a2062797465636f6465206c656e677468206973207a65726f604082015260600190565b60208082526019908201527f437265617465323a204661696c6564206f6e206465706c6f7900000000000000604082015260600190565b6020808252601190820152704c696245524332303a204e4f5f434f444560781b604082015260600190565b60208082526024908201527f4368616e6e656c466163746f72793a2045524332305f415050524f56455f46416040820152631253115160e21b606082015260800190565b60208082526025908201527f4368616e6e656c466163746f72793a2045524332305f5452414e534645525f46604082015264105253115160da1b606082015260800190565b6020808252601d908201527f437265617465323a20696e73756666696369656e742062616c616e6365000000604082015260600190565b90815260200190565b60005b83811015610a9a578181015183820152602001610a82565b83811115610aa9576000848401525b5050505056fea26469706673582212203430829cd8d8a98c5c32da8550e932e98de502c717a5eb5ff7e31d7fa5cbf5e864736f6c63430007010033",
  "devdoc": {
    "author": "Connext <support@connext.network>",
    "kind": "dev",
    "methods": {
      "constructor": {
        "details": "Creates a new `ChannelFactory`",
        "params": {
          "_chainId": "the chain identifier when generating the CREATE2 salt. If zero, the chain identifier used in the proxy salt will be the result of the opcode",
          "_mastercopy": "the address of the `ChannelMastercopy` (channel logic)"
        }
      },
      "createChannel(address,address)": {
        "details": "Allows us to create new channel contract and get it all set up in one transaction",
        "params": {
          "alice": "address of the high fidelity channel participant",
          "bob": "address of the other channel participant"
        }
      },
      "createChannelAndDepositAlice(address,address,address,uint256)": {
        "details": "Allows us to create a new channel contract and fund it in one transaction",
        "params": {
          "bob": "address of the other channel participant"
        }
      },
      "getChainId()": {
        "details": "Allows us to get the chainId that this factory will use in the create2 salt"
      },
      "getChannelAddress(address,address)": {
        "details": "Allows us to get the address for a new channel contract created via `createChannel`",
        "params": {
          "alice": "address of the igh fidelity channel participant",
          "bob": "address of the other channel participant"
        }
      },
      "getMastercopy()": {
        "details": "Allows us to get the mastercopy that this factory will deploy channels against"
      },
      "getProxyCreationCode()": {
        "details": "Returns the proxy code used to both calculate the CREATE2 address and deploy the channel proxy pointed to the `ChannelMastercopy`"
      },
      "getStoredChainId()": {
        "details": "Allows us to get the chainId that this factory has stored"
      }
    },
    "title": "ChannelFactory",
    "version": 1
  },
  "userdoc": {
    "kind": "user",
    "methods": {},
    "notice": "Creates and sets up a new channel proxy contract",
    "version": 1
  },
  "storageLayout": {
    "storage": [],
    "types": null
  }
}